:1000000022C031C03BC02FC02EC02DC052C02BC05B
:100010002AC029C028C027C026C025C024C023C0AC
:1000200022C05DC05FC05EC05DC05CC05BC05AC026
:1000300059C058C060C063C068C067C066C065C0B2
:1000400064C063C062C011241FBECFE5D2E0DEBF32
:10005000CDBF10E0A0E6B0E001C01D92A23AB1070A
:10006000E1F786D0C4C0CCCF6199FECF83BB14BA70
:100070009198599A619A1DBC1CBC08951F920F92C9
:100080000FB60F9211248F939F93C9990BC08AE1E9
:1000900099E09BBD8ABD8AE084BB9198599A619A88
:1000A0001DBC1CBC9F918F910F900FBE0F901F9095
:1000B00018951F920F920FB60F9211242F938F93C2
:1000C0009F93AF93BF93EF93FF93E4B38E2F90E092
:1000D00082319105F0F5FC01EF5EFF4F0994919894
:1000E000D89837C083B380FDD89A80FFD89883B35F
:1000F000869583BB2EC0D89A919A61982AC080E8D1
:1001000096E09BBD8ABD1DBC1CBC83B38695C99976
:1001100002C090E001C090E8892B83BB84B3813199
:10012000C1F493B38091A10020916000821B8034C0
:1001300059F0E091A10081E08E0F8093A100EF7350
:10014000F0E0EF59FF4F90836198919A8AB78061F0
:100150008ABF84B38F5F84BBFF91EF91BF91AF9152
:100160009F918F912F910F900FBE0F901F90189518
:10017000D09AD198D79AD89ADF9AF89480E896E0E6
:100180009BBD8ABD1FBC8EB588608EBD8EB581605B
:100190008EBD8BB780618BBF919A789485E564DFC3
:1001A00085E562DF85E560DF85E55EDF85E55CDFAF
:1001B0009091A100809160009817D1F39091A100D7
:1001C00080916000981761F0E091600081E08E0FEF
:1001D00080936000EF73F0E0EF59FF4FC08101C0E2
:1001E000C0E08C2F41DFCD3019F78AE0E0CFF894E2
:0201F000FFCF3F
:00000001FF
