:1000000022C031C03BC02FC02EC02DC052C02BC05B
:100010002AC029C028C027C026C025C024C023C0AC
:1000200022C05DC05EC05DC05CC05BC05AC059C02C
:1000300058C057C05FC062C067C066C065C064C0BA
:1000400063C062C061C011241FBECFE5D2E0DEBF35
:10005000CDBF10E0A0E6B0E001C01D92A23AB1070A
:10006000E1F785D0BAC0CCCF6199FECF83BB14BA7B
:100070009198599A1DBC1CBC619A08951F920F92C9
:100080000FB60F9211248F939F93C9990BC08BE1E8
:1000900099E09BBD8ABD8AE084BB9198599A1DBCAA
:1000A0001CBC619A9F918F910F900FBE0F901F9073
:1000B00018951F920F920FB60F9211242F938F93C2
:1000C0009F93AF93BF93EF93FF93E4B38E2F90E092
:1000D00082319105E8F5FC01EF5EFF4F0994D89855
:1000E00037C083B380FDD89A80FFD89883B38695B4
:1000F00083BB2EC0D89A919A61982AC081E896E075
:100100009BBD8ABD1DBC1CBC83B38695C99902C02A
:1001100090E001C090E8892B83BB84B38131C1F4A6
:1001200061988AB780618ABF93B38091A1002091C2
:100130006000821B803459F0E091A10081E08E0FB5
:100140008093A100EF73F0E0EF59FF4F9083919AF5
:1001500084B38F5F84BBFF91EF91BF91AF919F916B
:100160008F912F910F900FBE0F901F901895D09ADE
:10017000D198D79AD89ADF9AF89481E896E09BBDF7
:100180008ABD1FBC8EB588608EBD8EB581608EBD68
:100190008BB780618BBF919A78949091A1008091E8
:1001A00060009817D1F39091A1008091600098179A
:1001B00061F0E091600081E08E0F80936000EF734A
:1001C000F0E0EF59FF4FC08101C0C0E08C2F4CDF41
:0E01D000CD3019F78AE048DFE0CFF894FFCF7A
:00000001FF
